{
  "_format": "hh-sol-artifact-1",
  "contractName": "Lottery",
  "sourceName": "contracts/Lottery.sol",
  "abi": [
    {
      "inputs": [
        {
          "internalType": "uint256",
          "name": "entranceFee",
          "type": "uint256"
        },
        {
          "internalType": "uint256",
          "name": "subscriptionId",
          "type": "uint256"
        },
        {
          "internalType": "address",
          "name": "vrfCoordinator",
          "type": "address"
        },
        {
          "internalType": "uint256",
          "name": "interval",
          "type": "uint256"
        }
      ],
      "stateMutability": "nonpayable",
      "type": "constructor"
    },
    {
      "inputs": [],
      "name": "Lottery__NotEnoughEthEntered",
      "type": "error"
    },
    {
      "inputs": [],
      "name": "Lottery__NotOpen",
      "type": "error"
    },
    {
      "inputs": [],
      "name": "Lottery__RefundFailed",
      "type": "error"
    },
    {
      "inputs": [],
      "name": "Lottery__TransferFailed",
      "type": "error"
    },
    {
      "inputs": [],
      "name": "Lottery__UpkeepNotNeeded",
      "type": "error"
    },
    {
      "inputs": [
        {
          "internalType": "address",
          "name": "have",
          "type": "address"
        },
        {
          "internalType": "address",
          "name": "want",
          "type": "address"
        }
      ],
      "name": "OnlyCoordinatorCanFulfill",
      "type": "error"
    },
    {
      "inputs": [
        {
          "internalType": "address",
          "name": "have",
          "type": "address"
        },
        {
          "internalType": "address",
          "name": "owner",
          "type": "address"
        },
        {
          "internalType": "address",
          "name": "coordinator",
          "type": "address"
        }
      ],
      "name": "OnlyOwnerOrCoordinator",
      "type": "error"
    },
    {
      "inputs": [],
      "name": "ZeroAddress",
      "type": "error"
    },
    {
      "anonymous": false,
      "inputs": [
        {
          "indexed": false,
          "internalType": "address",
          "name": "vrfCoordinator",
          "type": "address"
        }
      ],
      "name": "CoordinatorSet",
      "type": "event"
    },
    {
      "anonymous": false,
      "inputs": [
        {
          "indexed": true,
          "internalType": "address",
          "name": "player",
          "type": "address"
        }
      ],
      "name": "LotteryEnter",
      "type": "event"
    },
    {
      "anonymous": false,
      "inputs": [
        {
          "indexed": true,
          "internalType": "address",
          "name": "from",
          "type": "address"
        },
        {
          "indexed": true,
          "internalType": "address",
          "name": "to",
          "type": "address"
        }
      ],
      "name": "OwnershipTransferRequested",
      "type": "event"
    },
    {
      "anonymous": false,
      "inputs": [
        {
          "indexed": true,
          "internalType": "address",
          "name": "from",
          "type": "address"
        },
        {
          "indexed": true,
          "internalType": "address",
          "name": "to",
          "type": "address"
        }
      ],
      "name": "OwnershipTransferred",
      "type": "event"
    },
    {
      "anonymous": false,
      "inputs": [
        {
          "indexed": true,
          "internalType": "uint256",
          "name": "requestId",
          "type": "uint256"
        }
      ],
      "name": "RequestedLotteryWinner",
      "type": "event"
    },
    {
      "anonymous": false,
      "inputs": [
        {
          "indexed": true,
          "internalType": "address",
          "name": "winner",
          "type": "address"
        }
      ],
      "name": "WinnerPicked",
      "type": "event"
    },
    {
      "stateMutability": "payable",
      "type": "fallback"
    },
    {
      "inputs": [],
      "name": "acceptOwnership",
      "outputs": [],
      "stateMutability": "nonpayable",
      "type": "function"
    },
    {
      "inputs": [
        {
          "internalType": "bytes",
          "name": "",
          "type": "bytes"
        }
      ],
      "name": "checkUpkeep",
      "outputs": [
        {
          "internalType": "bool",
          "name": "upkeepNeeded",
          "type": "bool"
        },
        {
          "internalType": "bytes",
          "name": "",
          "type": "bytes"
        }
      ],
      "stateMutability": "view",
      "type": "function"
    },
    {
      "inputs": [],
      "name": "enterLottery",
      "outputs": [],
      "stateMutability": "payable",
      "type": "function"
    },
    {
      "inputs": [],
      "name": "getEntranceFee",
      "outputs": [
        {
          "internalType": "uint256",
          "name": "",
          "type": "uint256"
        }
      ],
      "stateMutability": "view",
      "type": "function"
    },
    {
      "inputs": [],
      "name": "getInterval",
      "outputs": [
        {
          "internalType": "uint256",
          "name": "",
          "type": "uint256"
        }
      ],
      "stateMutability": "view",
      "type": "function"
    },
    {
      "inputs": [],
      "name": "getLastTimeStamp",
      "outputs": [
        {
          "internalType": "uint256",
          "name": "",
          "type": "uint256"
        }
      ],
      "stateMutability": "view",
      "type": "function"
    },
    {
      "inputs": [],
      "name": "getLotteryState",
      "outputs": [
        {
          "internalType": "enum Lottery.LotteryState",
          "name": "",
          "type": "uint8"
        }
      ],
      "stateMutability": "view",
      "type": "function"
    },
    {
      "inputs": [],
      "name": "getNumWords",
      "outputs": [
        {
          "internalType": "uint256",
          "name": "",
          "type": "uint256"
        }
      ],
      "stateMutability": "pure",
      "type": "function"
    },
    {
      "inputs": [
        {
          "internalType": "uint256",
          "name": "index",
          "type": "uint256"
        }
      ],
      "name": "getPlayer",
      "outputs": [
        {
          "internalType": "address",
          "name": "",
          "type": "address"
        }
      ],
      "stateMutability": "view",
      "type": "function"
    },
    {
      "inputs": [],
      "name": "getPlayerNumber",
      "outputs": [
        {
          "internalType": "uint256",
          "name": "",
          "type": "uint256"
        }
      ],
      "stateMutability": "view",
      "type": "function"
    },
    {
      "inputs": [],
      "name": "getRecentWinner",
      "outputs": [
        {
          "internalType": "address",
          "name": "",
          "type": "address"
        }
      ],
      "stateMutability": "view",
      "type": "function"
    },
    {
      "inputs": [],
      "name": "getRequestConfirmations",
      "outputs": [
        {
          "internalType": "uint256",
          "name": "",
          "type": "uint256"
        }
      ],
      "stateMutability": "pure",
      "type": "function"
    },
    {
      "inputs": [],
      "name": "owner",
      "outputs": [
        {
          "internalType": "address",
          "name": "",
          "type": "address"
        }
      ],
      "stateMutability": "view",
      "type": "function"
    },
    {
      "inputs": [
        {
          "internalType": "bytes",
          "name": "",
          "type": "bytes"
        }
      ],
      "name": "performUpkeep",
      "outputs": [],
      "stateMutability": "nonpayable",
      "type": "function"
    },
    {
      "inputs": [
        {
          "internalType": "uint256",
          "name": "requestId",
          "type": "uint256"
        },
        {
          "internalType": "uint256[]",
          "name": "randomWords",
          "type": "uint256[]"
        }
      ],
      "name": "rawFulfillRandomWords",
      "outputs": [],
      "stateMutability": "nonpayable",
      "type": "function"
    },
    {
      "inputs": [],
      "name": "s_vrfCoordinator",
      "outputs": [
        {
          "internalType": "contract IVRFCoordinatorV2Plus",
          "name": "",
          "type": "address"
        }
      ],
      "stateMutability": "view",
      "type": "function"
    },
    {
      "inputs": [
        {
          "internalType": "address",
          "name": "_vrfCoordinator",
          "type": "address"
        }
      ],
      "name": "setCoordinator",
      "outputs": [],
      "stateMutability": "nonpayable",
      "type": "function"
    },
    {
      "inputs": [
        {
          "internalType": "address",
          "name": "to",
          "type": "address"
        }
      ],
      "name": "transferOwnership",
      "outputs": [],
      "stateMutability": "nonpayable",
      "type": "function"
    },
    {
      "stateMutability": "payable",
      "type": "receive"
    }
  ],
  "bytecode": "0x60e06040527f787d74caea10b2b357790d5b5247c2f63d1d91572a9846f780606e4d953677ae60001b60a09081525034801561003a57600080fd5b506040516124f63803806124f6833981810160405281019061005c9190610415565b81338060008073ffffffffffffffffffffffffffffffffffffffff168273ffffffffffffffffffffffffffffffffffffffff16036100cf576040517f08c379a00000000000000000000000000000000000000000000000000000000081526004016100c6906104d9565b60405180910390fd5b816000806101000a81548173ffffffffffffffffffffffffffffffffffffffff021916908373ffffffffffffffffffffffffffffffffffffffff160217905550600073ffffffffffffffffffffffffffffffffffffffff168173ffffffffffffffffffffffffffffffffffffffff1614610153576101528161025060201b60201c565b5b505050600073ffffffffffffffffffffffffffffffffffffffff168173ffffffffffffffffffffffffffffffffffffffff16036101bc576040517fd92e233d00000000000000000000000000000000000000000000000000000000815260040160405180910390fd5b80600260006101000a81548173ffffffffffffffffffffffffffffffffffffffff021916908373ffffffffffffffffffffffffffffffffffffffff160217905550508360808181525050826004819055506000600660146101000a81548160ff02191690836001811115610233576102326104f9565b5b0217905550426005819055508060c0818152505050505050610594565b3373ffffffffffffffffffffffffffffffffffffffff168173ffffffffffffffffffffffffffffffffffffffff16036102be576040517f08c379a00000000000000000000000000000000000000000000000000000000081526004016102b590610574565b60405180910390fd5b80600160006101000a81548173ffffffffffffffffffffffffffffffffffffffff021916908373ffffffffffffffffffffffffffffffffffffffff1602179055508073ffffffffffffffffffffffffffffffffffffffff1660008054906101000a900473ffffffffffffffffffffffffffffffffffffffff1673ffffffffffffffffffffffffffffffffffffffff167fed8889f560326eb138920d842192f0eb3dd22b4f139c87a2c57538e05bae127860405160405180910390a350565b600080fd5b6000819050919050565b61039481610381565b811461039f57600080fd5b50565b6000815190506103b18161038b565b92915050565b600073ffffffffffffffffffffffffffffffffffffffff82169050919050565b60006103e2826103b7565b9050919050565b6103f2816103d7565b81146103fd57600080fd5b50565b60008151905061040f816103e9565b92915050565b6000806000806080858703121561042f5761042e61037c565b5b600061043d878288016103a2565b945050602061044e878288016103a2565b935050604061045f87828801610400565b9250506060610470878288016103a2565b91505092959194509250565b600082825260208201905092915050565b7f43616e6e6f7420736574206f776e657220746f207a65726f0000000000000000600082015250565b60006104c360188361047c565b91506104ce8261048d565b602082019050919050565b600060208201905081810360008301526104f2816104b6565b9050919050565b7f4e487b7100000000000000000000000000000000000000000000000000000000600052602160045260246000fd5b7f43616e6e6f74207472616e7366657220746f2073656c66000000000000000000600082015250565b600061055e60178361047c565b915061056982610528565b602082019050919050565b6000602082019050818103600083015261058d81610551565b9050919050565b60805160a05160c051611f176105df600039600081816107680152610bb0015260006105c501526000818161040201528181610c6901528181610d260152610d670152611f176000f3fe60806040526004361061010d5760003560e01c806379ba5097116100955780639eccacf6116100645780639eccacf614610338578063c1af578514610363578063c1c244e81461036d578063e55ae4e814610398578063f2fde38b146103d55761010e565b806379ba5097146102a25780638da5cb5b146102b95780638ea98117146102e457806391ad27b41461030d5761010e565b8063473f1ddc116100dc578063473f1ddc146101b857806353a2c19a146101e35780635f1b0fd81461020e5780636b68c03c146102395780636e04ff0d146102645761010e565b806309bc33a71461011057806313eaac6c1461013b5780631fe543e3146101665780634585e33b1461018f5761010e565b5b005b34801561011c57600080fd5b506101256103fe565b604051610132919061140e565b60405180910390f35b34801561014757600080fd5b50610150610426565b60405161015d919061140e565b60405180910390f35b34801561017257600080fd5b5061018d600480360381019061018891906114ce565b610433565b005b34801561019b57600080fd5b506101b660048036038101906101b19190611584565b6104f9565b005b3480156101c457600080fd5b506101cd6106c9565b6040516101da9190611612565b60405180910390f35b3480156101ef57600080fd5b506101f86106f3565b604051610205919061140e565b60405180910390f35b34801561021a57600080fd5b50610223610702565b604051610230919061140e565b60405180910390f35b34801561024557600080fd5b5061024e61070f565b60405161025b91906116a4565b60405180910390f35b34801561027057600080fd5b5061028b60048036038101906102869190611800565b610726565b6040516102999291906118e3565b60405180910390f35b3480156102ae57600080fd5b506102b761080d565b005b3480156102c557600080fd5b506102ce6109a2565b6040516102db9190611612565b60405180910390f35b3480156102f057600080fd5b5061030b6004803603810190610306919061193f565b6109cb565b005b34801561031957600080fd5b50610322610bac565b60405161032f919061140e565b60405180910390f35b34801561034457600080fd5b5061034d610bd4565b60405161035a91906119cb565b60405180910390f35b61036b610bfa565b005b34801561037957600080fd5b50610382610e61565b60405161038f919061140e565b60405180910390f35b3480156103a457600080fd5b506103bf60048036038101906103ba91906119e6565b610e6b565b6040516103cc9190611612565b60405180910390f35b3480156103e157600080fd5b506103fc60048036038101906103f7919061193f565b610eb3565b005b60007f0000000000000000000000000000000000000000000000000000000000000000905090565b6000600380549050905090565b600260009054906101000a900473ffffffffffffffffffffffffffffffffffffffff1673ffffffffffffffffffffffffffffffffffffffff163373ffffffffffffffffffffffffffffffffffffffff16146104e95733600260009054906101000a900473ffffffffffffffffffffffffffffffffffffffff166040517f1cf993f40000000000000000000000000000000000000000000000000000000081526004016104e0929190611a13565b60405180910390fd5b6104f4838383610ec7565b505050565b600061051360405180602001604052806000815250610726565b5090508061054d576040517f35ae29b400000000000000000000000000000000000000000000000000000000815260040160405180910390fd5b6001600660146101000a81548160ff021916908360018111156105735761057261162d565b5b02179055506000600260009054906101000a900473ffffffffffffffffffffffffffffffffffffffff1673ffffffffffffffffffffffffffffffffffffffff16639b1c385e6040518060c001604052807f000000000000000000000000000000000000000000000000000000000000000081526020016004548152602001600361ffff16815260200162030d4063ffffffff168152602001600163ffffffff1681526020016106326040518060200160405280600015158152506110fa565b8152506040518263ffffffff1660e01b81526004016106519190611b73565b6020604051808303816000875af1158015610670573d6000803e3d6000fd5b505050506040513d601f19601f820116820180604052508101906106949190611baa565b9050807febf56642252004c18a776f30d528e7a0ce8c5db14b6596fb6550f630c8a24c6c60405160405180910390a250505050565b6000600660009054906101000a900473ffffffffffffffffffffffffffffffffffffffff16905090565b6000600163ffffffff16905090565b6000600361ffff16905090565b6000600660149054906101000a900460ff16905090565b60006060600080600181111561073f5761073e61162d565b5b600660149054906101000a900460ff1660018111156107615761076061162d565b5b14905060007f0000000000000000000000000000000000000000000000000000000000000000600554426107959190611c06565b119050600080600380549050119050600080471190508380156107b55750825b80156107be5750815b80156107c75750805b9550856040518060400160405280600381526020017f30783000000000000000000000000000000000000000000000000000000000008152509550955050505050915091565b600160009054906101000a900473ffffffffffffffffffffffffffffffffffffffff1673ffffffffffffffffffffffffffffffffffffffff163373ffffffffffffffffffffffffffffffffffffffff161461089d576040517f08c379a000000000000000000000000000000000000000000000000000000000815260040161089490611c97565b60405180910390fd5b60008060009054906101000a900473ffffffffffffffffffffffffffffffffffffffff169050336000806101000a81548173ffffffffffffffffffffffffffffffffffffffff021916908373ffffffffffffffffffffffffffffffffffffffff1602179055506000600160006101000a81548173ffffffffffffffffffffffffffffffffffffffff021916908373ffffffffffffffffffffffffffffffffffffffff1602179055503373ffffffffffffffffffffffffffffffffffffffff168173ffffffffffffffffffffffffffffffffffffffff167f8be0079c531659141344cd1fd0a4f28419497f9722a3daafe3b4186f6b6457e060405160405180910390a350565b60008060009054906101000a900473ffffffffffffffffffffffffffffffffffffffff16905090565b6109d36109a2565b73ffffffffffffffffffffffffffffffffffffffff163373ffffffffffffffffffffffffffffffffffffffff1614158015610a5c5750600260009054906101000a900473ffffffffffffffffffffffffffffffffffffffff1673ffffffffffffffffffffffffffffffffffffffff163373ffffffffffffffffffffffffffffffffffffffff1614155b15610acb5733610a6a6109a2565b600260009054906101000a900473ffffffffffffffffffffffffffffffffffffffff166040517f061db9c1000000000000000000000000000000000000000000000000000000008152600401610ac293929190611cb7565b60405180910390fd5b600073ffffffffffffffffffffffffffffffffffffffff168173ffffffffffffffffffffffffffffffffffffffff1603610b31576040517fd92e233d00000000000000000000000000000000000000000000000000000000815260040160405180910390fd5b80600260006101000a81548173ffffffffffffffffffffffffffffffffffffffff021916908373ffffffffffffffffffffffffffffffffffffffff1602179055507fd1a6a14209a385a964d036e404cb5cfb71f4000cdb03c9366292430787261be681604051610ba19190611612565b60405180910390a150565b60007f0000000000000000000000000000000000000000000000000000000000000000905090565b600260009054906101000a900473ffffffffffffffffffffffffffffffffffffffff1681565b60006001811115610c0e57610c0d61162d565b5b600660149054906101000a900460ff166001811115610c3057610c2f61162d565b5b14610c67576040517fe76be6fc00000000000000000000000000000000000000000000000000000000815260040160405180910390fd5b7f0000000000000000000000000000000000000000000000000000000000000000341015610cc1576040517f3e8f808800000000000000000000000000000000000000000000000000000000815260040160405180910390fd5b6003339080600181540180825580915050600190039060005260206000200160009091909190916101000a81548173ffffffffffffffffffffffffffffffffffffffff021916908373ffffffffffffffffffffffffffffffffffffffff1602179055507f0000000000000000000000000000000000000000000000000000000000000000341115610e1c5760003373ffffffffffffffffffffffffffffffffffffffff167f000000000000000000000000000000000000000000000000000000000000000034610d919190611c06565b604051610d9d90611d1f565b60006040518083038185875af1925050503d8060008114610dda576040519150601f19603f3d011682016040523d82523d6000602084013e610ddf565b606091505b5050905080610e1a576040517f92e815c900000000000000000000000000000000000000000000000000000000815260040160405180910390fd5b505b3373ffffffffffffffffffffffffffffffffffffffff167f1d64fb5ba9f2548c5b98468d58f25b87b9e866afee0122e92d9fe722bf85076c60405160405180910390a2565b6000600554905090565b600060038281548110610e8157610e80611d34565b5b9060005260206000200160009054906101000a900473ffffffffffffffffffffffffffffffffffffffff169050919050565b610ebb611192565b610ec481611222565b50565b600060038054905083836000818110610ee357610ee2611d34565b5b90506020020135610ef49190611d92565b9050600060038281548110610f0c57610f0b611d34565b5b9060005260206000200160009054906101000a900473ffffffffffffffffffffffffffffffffffffffff16905080600660006101000a81548173ffffffffffffffffffffffffffffffffffffffff021916908373ffffffffffffffffffffffffffffffffffffffff1602179055506000600660146101000a81548160ff02191690836001811115610fa057610f9f61162d565b5b0217905550600067ffffffffffffffff811115610fc057610fbf6116d5565b5b604051908082528060200260200182016040528015610fee5781602001602082028036833780820191505090505b506003908051906020019061100492919061134e565b504260058190555060008173ffffffffffffffffffffffffffffffffffffffff164760405161103290611d1f565b60006040518083038185875af1925050503d806000811461106f576040519150601f19603f3d011682016040523d82523d6000602084013e611074565b606091505b50509050806110af576040517f1c94012000000000000000000000000000000000000000000000000000000000815260040160405180910390fd5b8173ffffffffffffffffffffffffffffffffffffffff167f5b690ec4a06fe979403046eaeea5b3ce38524683c3001f662c8b5a829632f7df60405160405180910390a2505050505050565b60607f92fd13387c7fe7befbc38d303d6468778fb9731bc4583f17d92989c6fcfdeaaa8260405160240161112e9190611dee565b604051602081830303815290604052907bffffffffffffffffffffffffffffffffffffffffffffffffffffffff19166020820180517bffffffffffffffffffffffffffffffffffffffffffffffffffffffff83818316178352505050509050919050565b60008054906101000a900473ffffffffffffffffffffffffffffffffffffffff1673ffffffffffffffffffffffffffffffffffffffff163373ffffffffffffffffffffffffffffffffffffffff1614611220576040517f08c379a000000000000000000000000000000000000000000000000000000000815260040161121790611e55565b60405180910390fd5b565b3373ffffffffffffffffffffffffffffffffffffffff168173ffffffffffffffffffffffffffffffffffffffff1603611290576040517f08c379a000000000000000000000000000000000000000000000000000000000815260040161128790611ec1565b60405180910390fd5b80600160006101000a81548173ffffffffffffffffffffffffffffffffffffffff021916908373ffffffffffffffffffffffffffffffffffffffff1602179055508073ffffffffffffffffffffffffffffffffffffffff1660008054906101000a900473ffffffffffffffffffffffffffffffffffffffff1673ffffffffffffffffffffffffffffffffffffffff167fed8889f560326eb138920d842192f0eb3dd22b4f139c87a2c57538e05bae127860405160405180910390a350565b8280548282559060005260206000209081019282156113c7579160200282015b828111156113c65782518260006101000a81548173ffffffffffffffffffffffffffffffffffffffff021916908373ffffffffffffffffffffffffffffffffffffffff1602179055509160200191906001019061136e565b5b5090506113d491906113d8565b5090565b5b808211156113f15760008160009055506001016113d9565b5090565b6000819050919050565b611408816113f5565b82525050565b600060208201905061142360008301846113ff565b92915050565b6000604051905090565b600080fd5b600080fd5b611446816113f5565b811461145157600080fd5b50565b6000813590506114638161143d565b92915050565b600080fd5b600080fd5b600080fd5b60008083601f84011261148e5761148d611469565b5b8235905067ffffffffffffffff8111156114ab576114aa61146e565b5b6020830191508360208202830111156114c7576114c6611473565b5b9250929050565b6000806000604084860312156114e7576114e6611433565b5b60006114f586828701611454565b935050602084013567ffffffffffffffff81111561151657611515611438565b5b61152286828701611478565b92509250509250925092565b60008083601f84011261154457611543611469565b5b8235905067ffffffffffffffff8111156115615761156061146e565b5b60208301915083600182028301111561157d5761157c611473565b5b9250929050565b6000806020838503121561159b5761159a611433565b5b600083013567ffffffffffffffff8111156115b9576115b8611438565b5b6115c58582860161152e565b92509250509250929050565b600073ffffffffffffffffffffffffffffffffffffffff82169050919050565b60006115fc826115d1565b9050919050565b61160c816115f1565b82525050565b60006020820190506116276000830184611603565b92915050565b7f4e487b7100000000000000000000000000000000000000000000000000000000600052602160045260246000fd5b6002811061166d5761166c61162d565b5b50565b600081905061167e8261165c565b919050565b600061168e82611670565b9050919050565b61169e81611683565b82525050565b60006020820190506116b96000830184611695565b92915050565b600080fd5b6000601f19601f8301169050919050565b7f4e487b7100000000000000000000000000000000000000000000000000000000600052604160045260246000fd5b61170d826116c4565b810181811067ffffffffffffffff8211171561172c5761172b6116d5565b5b80604052505050565b600061173f611429565b905061174b8282611704565b919050565b600067ffffffffffffffff82111561176b5761176a6116d5565b5b611774826116c4565b9050602081019050919050565b82818337600083830152505050565b60006117a361179e84611750565b611735565b9050828152602081018484840111156117bf576117be6116bf565b5b6117ca848285611781565b509392505050565b600082601f8301126117e7576117e6611469565b5b81356117f7848260208601611790565b91505092915050565b60006020828403121561181657611815611433565b5b600082013567ffffffffffffffff81111561183457611833611438565b5b611840848285016117d2565b91505092915050565b60008115159050919050565b61185e81611849565b82525050565b600081519050919050565b600082825260208201905092915050565b60005b8381101561189e578082015181840152602081019050611883565b60008484015250505050565b60006118b582611864565b6118bf818561186f565b93506118cf818560208601611880565b6118d8816116c4565b840191505092915050565b60006040820190506118f86000830185611855565b818103602083015261190a81846118aa565b90509392505050565b61191c816115f1565b811461192757600080fd5b50565b60008135905061193981611913565b92915050565b60006020828403121561195557611954611433565b5b60006119638482850161192a565b91505092915050565b6000819050919050565b600061199161198c611987846115d1565b61196c565b6115d1565b9050919050565b60006119a382611976565b9050919050565b60006119b582611998565b9050919050565b6119c5816119aa565b82525050565b60006020820190506119e060008301846119bc565b92915050565b6000602082840312156119fc576119fb611433565b5b6000611a0a84828501611454565b91505092915050565b6000604082019050611a286000830185611603565b611a356020830184611603565b9392505050565b6000819050919050565b611a4f81611a3c565b82525050565b611a5e816113f5565b82525050565b600061ffff82169050919050565b611a7b81611a64565b82525050565b600063ffffffff82169050919050565b611a9a81611a81565b82525050565b600082825260208201905092915050565b6000611abc82611864565b611ac68185611aa0565b9350611ad6818560208601611880565b611adf816116c4565b840191505092915050565b600060c083016000830151611b026000860182611a46565b506020830151611b156020860182611a55565b506040830151611b286040860182611a72565b506060830151611b3b6060860182611a91565b506080830151611b4e6080860182611a91565b5060a083015184820360a0860152611b668282611ab1565b9150508091505092915050565b60006020820190508181036000830152611b8d8184611aea565b905092915050565b600081519050611ba48161143d565b92915050565b600060208284031215611bc057611bbf611433565b5b6000611bce84828501611b95565b91505092915050565b7f4e487b7100000000000000000000000000000000000000000000000000000000600052601160045260246000fd5b6000611c11826113f5565b9150611c1c836113f5565b9250828203905081811115611c3457611c33611bd7565b5b92915050565b600082825260208201905092915050565b7f4d7573742062652070726f706f736564206f776e657200000000000000000000600082015250565b6000611c81601683611c3a565b9150611c8c82611c4b565b602082019050919050565b60006020820190508181036000830152611cb081611c74565b9050919050565b6000606082019050611ccc6000830186611603565b611cd96020830185611603565b611ce66040830184611603565b949350505050565b600081905092915050565b50565b6000611d09600083611cee565b9150611d1482611cf9565b600082019050919050565b6000611d2a82611cfc565b9150819050919050565b7f4e487b7100000000000000000000000000000000000000000000000000000000600052603260045260246000fd5b7f4e487b7100000000000000000000000000000000000000000000000000000000600052601260045260246000fd5b6000611d9d826113f5565b9150611da8836113f5565b925082611db857611db7611d63565b5b828206905092915050565b611dcc81611849565b82525050565b602082016000820151611de86000850182611dc3565b50505050565b6000602082019050611e036000830184611dd2565b92915050565b7f4f6e6c792063616c6c61626c65206279206f776e657200000000000000000000600082015250565b6000611e3f601683611c3a565b9150611e4a82611e09565b602082019050919050565b60006020820190508181036000830152611e6e81611e32565b9050919050565b7f43616e6e6f74207472616e7366657220746f2073656c66000000000000000000600082015250565b6000611eab601783611c3a565b9150611eb682611e75565b602082019050919050565b60006020820190508181036000830152611eda81611e9e565b905091905056fea264697066735822122090c05024766bbe8a08f42220ee01973e3f6a3b0403df894090011eca388612b564736f6c634300081c0033",
  "linkReferences": {},
  "deployedLinkReferences": {}
}